:10000000C6EF01F00000000000EF00F0000000006B
:0A0010000000000000000000F3D71C
:10001C00080E0C6E230E0D6E0D2EFED70C2EFCD77B
:02002C001200C0
:04002E0000001200BC
:0C003200100E0D6E0D2EFED70000120007
:10003E00C7B409D01F0EC514016E0150000A03E1AA
:0A004E00010E006E01D0006A1200DE
:1000580066BE02D0819E01D0818E66BC02D0819C92
:1000680001D0818C66BA02D0819A01D0818A66B8A3
:1000780002D0819801D081884EB002D0818401D00D
:1000880081948186D0DF819666B602D0819E01D0A8
:10009800818E66B402D0819C01D0818C66B202D078
:1000A800819A01D0818A66B002D0819801D0818876
:1000B8004EB002D0818401D081948186B4DF8196CC
:0C00C8004EA002D0A7DF01D0B0DF120074
:1000D4009E9664C0C9FFC7A401D0FDD79EB601D0C7
:1000E400FDD7C5BC02D0006A03D0C584020E006EE1
:0200F4001200F8
:0400F600C5841200AB
:0E00FA00ACB202D00000FCD764C0ADFF120013
:0A010800C582C5A201D0FDD7120088
:10011200646A656A6550120802E164508E0807E35A
:100122008DDF005201E003D0644A652AF3D7120E34
:10013200655C02E18F0E645C03E37B0E006E05D00A
:0C014200C580C5A001D0FDD7006A1200E6
:10014E009E96C5869EB601D0FDD7C9CF01F06450EC
:10015E00000A02E1C58A01D0C59A9E96C5889EB650
:0A016E0001D0FDD701C000F012001F
:0C0178004E9064C066F06CDF4E801200F8
:10018400949894968B988B9694889486C79EC79CD3
:06019400380EC66E1200D9
:10019A000900F5CFE6FF0006FBE10106F9E11200CE
:1001AA000FD0800E5F6E19D0C00E5F6E16D0940EFF
:1001BA005F6E13D0D40E5F6E10D0800E5F6E0DD0BE
:1001CA005F50010AEEE05F50020AEEE05F50030A58
:1001DA00EEE05F50040AEEE0F0D76004006E5F5074
:1001EA00002600C05FF000C066F031DF4E90636AFF
:1001FA0063506124E96E000E6220EA6EEE520BE053
:10020A0063506124E96E000E6220EA6EEECF64F05C
:0A021A00AEDF632AEDD74E8012001C
:10022400939693949398939A939C939E8196819496
:10023400819E819C819A8198EFDEEEDEEDDE818ADB
:1002440081888186F2DE8196E7DE8186EEDE819604
:10025400E3DE8186EADE8196DFDE81988186E5DE53
:100264008196DADE8186E1DE8196819A818E8186AD
:10027400DCDE8196D1DE819E81888186D6DE819600
:1002840081988186D2DE8196C7DE8186CEDE819614
:1002940081888186CADE8196BFDE81988186C5DE2B
:1002A4008196818E818C818A81888186BEDE819649
:0602B400B3DE4E801200D3
:1002BA005FC000F00032009E0032009E0032009EB5
:0A02CA000032009E300E00261200E4
:0C02D4000F0E5F14006E300E00261200AA
:1002E00018DFD00E646EF6DE5FC064F0F3DE0CDF64
:1002F000D10E646EEFDE646A2ADF00C060F0FBDEC0
:0603000060C000F01200D5
:10030600FA0E4A6E000E4B6E640E4C6E000E4D6E6B
:10031600FF0E4F6EFF0E506E000E516E000E526EA7
:10032600FF0E576EFF0E586E000E596E000E5A6E77
:10033600FF0E536EFF0E546E000E556E000E566E77
:10034600AC8A900EAB6E948E949C9EAA03D0AECFD0
:0603560000F0FBD71200CD
:10035C00626A5FC0E9FF60C0EAFFEECF61F06150F6
:10036C00000A0DE061C064F0C2DE622A62505F24B4
:10037C00E96E000E6020EA6EEECF61F0F0D712004D
:10038C00C4EC02F00A0EC86EF7DE060EC16E070E44
:10039C00926E806A41DF010E666E58DE0C0E666E40
:1003AC0055DE010E5F6E010E606E1B0E616E000E4F
:1003BC00626EF5DE020E5F6E010E606E150E616EE2
:1003CC00000E626EECDE948E190EAF6EAC8495DF6F
:1003DC00820E0C6EDD0E0D6E0D2EFED70C2EFCD784
:1003EC0000000000210E5F6E000E606EB1DF5F6AD0
:1003FC0071DF00C048F0000E496E010E5F6E6ADFBF
:10040C0000C046F0000E476E020E5F6E63DF00C048
:10041C003EF0000E3F6E1F0E3E143C6E3FC03DF092
:10042C00000E3D16200E3E14406E3FC041F0000EF3
:10043C004116030E5F6E4EDF00C044F0000E456E99
:10044C00040E5F6E47DF00C042F0000E436E050ED7
:10045C005F6E40DF00C05DF0000E5E6E060E5F6EDC
:10046C0039DF00C05BF0000E5C6E3CC05FF01FDF3C
:10047C0000C027F03CC05FF027DF00C028F046C06A
:10048C005FF015DF00C02AF046C05FF01DDF00C032
:10049C002BF048C05FF00BDF00C02DF048C05FF0C0
:1004AC0013DF00C02EF042C05FF001DF00C033F05C
:1004BC0042C05FF009DF00C034F05DC05FF0F7DED2
:1004CC0000C036F05DC05FF0FFDE00C037F05BC0EF
:1004DC005FF0EDDE00C039F05BC05FF0F5DE00C010
:1004EC003AF04050411005E0500E306E4D0E316E1A
:1004FC0004D0410E306E4D0E316E270E5F6E000E25
:10050C00606E26DF0A0E646EF2DD0D0E646EEFDD9A
:10051C00060E0B6E130E0C6EAD0E0D6E0D2EFED761
:10052C000C2EFCD70B2EFAD700000000010E5F6ECC
:10053C00060E606E270E616E000E626E30DE020ECD
:10054C005F6E060E606E330E616E000E626E27DEFD
:04055C004ED7FFD7A0
:1005880010EE15F0270E006E010E016E600EF66E6D
:0E059800050EF76E000EF86ECDEC00F01200AE
:06056000446174653A00DD
:0605660054696D653A00C6
:06056C005374617274007B
:0C05720030303A30303A303020504D002C
:09057E0030302D30302D303000FA
:020000040030CA
:0D000100220F0EFF0181FF0FC00FE00F4026
:00000001FF
